:020000040800F2
:10000000C0080020F90100089D7600085922000868
:1000100099760008851F0008C385000800000000CD
:1000200000000000000000000000000091790008BE
:10003000891F00080000000059780008A57A000810
:10004000130200081302000813020008130200083C
:10005000130200081302000813020008130200082C
:10006000130200081302000813020008130200081C
:10007000130200081302000813020008130200080C
:1000800013020008130200081302000813020008FC
:1000900013020008130200081302000813020008EC
:1000A00013020008130200081302000813020008DC
:1000B00013020008497D000813020008130200081B
:1000C00013020008130200081302000813020008BC
:1000D00013020008A183000813020008130200089D
:1000E000130200081302000813020008130200089C
:1000F000130200081302000813020008130200088C
:1001000013020008130200081D7F000813020008F4
:10011000130200081302000813020008130200086B
:10012000130200081302000813020008130200085B
:1001300000F002F800F050F80AA090E8000C8244A9
:100140008344AAF10107DA4501D100F045F8AFF286
:10015000090EBAE80F0013F0010F18BFFB1A43F0A5
:100160000103184774B3000094B30000103A24BF91
:1001700078C878C1FAD8520724BF30C830C144BF0C
:1001800004680C607047000000230024002500264E
:10019000103A28BF78C1FBD8520728BF30C148BFEA
:1001A0000B607047662909F0D084782900F06680DA
:1001B000002070471FB500F01FFC04000020002144
:1001C00008F050FC401C60600020002108F034FC66
:1001D000E0601FBD10B510BD00F03AFD1146FFF7FD
:1001E000E9FF08F06BFB00F0B3FF03B4FFF7F2FF89
:1001F00003BC08F069FA0000094880470948004735
:10020000FEE7FEE7FEE7FEE7FEE7FEE7FEE7FEE7C6
:10021000FEE7FEE704480549054A064B7047000023
:10022000A97A000831010008C0020020C00800209F
:10023000C0040020C0040020704700000FB404492F
:1002400010B503AA029800F075FB10BC5DF814FB12
:10025000180000200FB41CB5074B06AA7B44694662
:100260000090059800F04DFB0020694600F05CFB13
:100270001CBC5DF814FB0000C906000070B5044604
:100280000D4621461068AFF300802188090502D58C
:100290000F4A7A4402E00E4A7A440E32002104F1F9
:1002A000240305E000F00F060009965D5E54491C2A
:1002B0000028F7D120780023000704D5702D02D044
:1002C00009B1022311322046BDE8704000F0ADB8FC
:1002D00074B100002DE9F05F894604464FF0000A32
:1002E000DFF824B1FB44C0F820A02046E16888472D
:1002F00000287DD0252806D0D4E901219047206A26
:10030000401C2062F1E700255F462046E1688847EF
:100310002028064607DB312E05D2B81910F8200C2C
:1003200008B10543F1E7A80701D525F00405C4F895
:100330001CA00027C4F818A02A2E09D0304608F0C7
:10034000BCF938B304EB8708303EC8F8186019E0F0
:1003500059F8041B204604EB87029161E168884745
:10036000012F064618D1E069002820DA25F0200583
:100370001DE0D8F8180000EB800006EB4000303894
:10038000C8F818002046E1688847064608F095F945
:100390000028EED1012F0AD02E2E08D12046E16888
:1003A00088477F1C0646022F45F02005C4DBA06964
:1003B000002803DA404245F00105A061E80701D0BA
:1003C00025F01005A6B1A6F14100192802D8203663
:1003D00045F400654A463146204625604D46FFF704
:1003E000E1FE60B1012807D0ED1D25F0070000E017
:1003F00007E000F1080978E705F1040975E73046E0
:100400007AE7206ABDE8F09F4AB100007047704764
:100410007047704710B500F0F3FA006810BD10B5D2
:10042000044600F0EDFA046010BD2DE9F0470D46DA
:1004300099469246044600F124080168880604D5CE
:10044000E06921F01001216000E00120A84201DDF7
:10045000471B00E00027A1697A1902EB0900081A7E
:10046000A0612078C00602D42046AFF300800026A9
:1004700008E0D4E901211AF806009047206A401CE0
:10048000761C20624E45F4DB2078C0060AD5204653
:10049000AFF3008006E0D4E9012130209047206AC4
:1004A000401C2062381EA7F10107F4DC07E0D4E904
:1004B000012118F805009047206A401C2062281E80
:1004C000A5F10105F3DC2046AFF30080207800069B
:1004D00002D50220BDE8F0870120FBE770472DE937
:1004E000FF4F0C461E464FF0FF378BB0D2E900019C
:1004F000DDF860800A908A46C1F30A5505B93D4689
:10050000002108464FF00000BAF1000F00F440004F
:1005100005DA00EB80004FF4400101EA50004FEA99
:100520009059B9F1010F00DDB9460A9850EA4A0026
:100530000ED044F61050A5F2FF3545432F14B8F104
:10054000000F1ED07542291E1EDDC9F100021CE0FD
:10055000B8F1010F4FF0000001D0302103E0F24369
:1005600005E02154401CB042FBDB30460022002154
:1005700021540B99C1F80880C1E900200FB0BDE8F3
:10058000F08FBD1B6D1CDEE74A4600DA694206A803
:1005900000F0E8FA06AB93E8070003AB83E8070036
:1005A00050460A9901F065F88DE80700A0F5005063
:1005B0001F3800900398002D09DD42F21F014A46C2
:1005C000084403A90390684601F0EFFA08E0A0F59B
:1005D00000504A461F3803A90390684601F00DFBFE
:1005E0008DE807000004000C03D04FF0FF304108F5
:1005F00000E01046B8F1000F03D00022009215462B
:100600001EE0751E05D400F0FFF9303262556D1EF4
:10061000F9D5B3460122084302D000227F1C04E032
:100620002078302801D100227F1E002A099786D029
:100630001DE0112D07DA00F0E7F9303262556D1C2C
:1006400050EA0102F5D1084302D00098C8B10EE08B
:100650000021681E05E0235C625C63542254401E46
:10066000491C8142F7DBAB46A81B401E09900020C5
:1006700004F80B000B98099AC0F80880C0E9002B19
:100680007CE711264FF0000859E72DE9F04F884626
:100690000446D21D22F0070191B0D1E90001CDE955
:1006A0000A0107F090FF02460B98C00F01D02D20E1
:1006B00007E02068810701D52B2002E0202101EA14
:1006C000C000032A099001D0072A05DB03464146F2
:1006D000204600F0E7F90BE12078800601D5E069BB
:1006E00000E00620B8F1650F814606D0B8F1660F2C
:1006F00018D0B8F1670F70D131E00020B9F1110FB7
:10070000009001DB112301E009F101030AAA01A90C
:100710000CA8FFF7E4FEDDE90C70002609F10105E5
:10072000834647E001204B4600904FF000470AAA5D
:1007300001A90CA8FFF7D3FEDDE90DB00C995D46C9
:10074000002610B909F101000D18B9EB050003D41A
:10075000C0F1FF3609F10105A5EB09002BE0B9F165
:10076000010F01DA4FF001090020B9F1110F0090DB
:10077000484601DD112300E003460AAA01A90CA89E
:10078000FFF7ADFEDDE90C704D460026834620786C
:1007900000070AD4AB4500DA5D4601A8012D04DD4F
:1007A000411911F8011C302907D04F4502DA17F121
:1007B000040F04DA012082460FE06D1EEEE7002FE1
:1007C00002DCED1B3E4403E0781CA84200DD7D1CEA
:1007D000B81B00F1010A4FF000472078000703D44E
:1007E000AA4501DB4FF0FF3A0021B7F1004F0DF1B0
:1007F00043088DF8431024D002202B23002F01DA68
:100800007F422D230A21021EA0F1010000DC5FB10E
:1008100097FBF1FC97FBF1F201FB1C7C17460CF1F6
:10082000300C08F801CDEEE7A8F101000370218833
:10083000090501D5452100E06521A0F1010800F876
:10084000011C09980FA9A1EB0807FF1D00B10120A9
:10085000411901EBEA70A1693844081A401EA061F1
:100860002078C00602D42046AFF30080099828B152
:10087000D4E901219047206A401C20622078C006FC
:1008800022D52046AFF300801EE0002E04DBB345E6
:1008900002DD01A8805D00E03020D4E9012190470D
:1008A000206A401C2062761CAAF101005FEA000A5F
:1008B0000AD100F0A1F8C0680168405CD4E90121C8
:1008C0009047206A401C2062281EA5F10105DCDC4F
:1008D00007E0D4E9012118F8010B9047206A401C79
:1008E0002062381EA7F10107F3DC2046AFF3008039
:1008F000032011B043E6000001694A1C0261087838
:10090000704700B58FB0CDE901310021059105494F
:100910007944CDE9031011466846FFF7DBFC0FB0C0
:1009200000BD0000E5FFFFFF0A6802F8010B0A6046
:1009300070470000074B70B50D467B44FFF7E1FFA1
:100940000446284600F07CF910B14FF0FF3070BD2E
:10095000204670BD977E00000FB4002300B589B01B
:100960000CA900910B99CB60204B7B440693204B44
:100970007B44079304236FF00042CDE901321D4A06
:100980007A446B4608920246002009F040F909B00B
:100990005DF814FB70B506464FF0FF3015460C4667
:1009A000324686B00091CDE90101694600200490ED
:1009B00004A8FFF7D1FF03460498211825B108B118
:1009C0000A4600E022462A6000280DD0002B02DDF6
:1009D0000098884208D03246081B69460094CDE949
:1009E000010404A8FFF7B8FF06B070BDB70100000E
:1009F000CF0100000F010000004870477C0200207A
:100A0000004870475C02002030B5B0F10A024FEA9E
:100A1000900E71F100034EEA817EB0EB0E0061EBA7
:100A200091014FEA101E4EEA017E10EB0E0041EBE1
:100A300011114FEA102E4EEA016E10EB0E0041EB41
:100A400011214FEA104E4EEA014E10EB0E0041EB21
:100A50001141401841F100014FEAD00040EA4170D5
:100A60004FEAD10110EB80054FEA810444EA90740B
:100A700044EB01046D1944EB0404521BA3414FF0F5
:100A8000000348BF0A3200D530BD401C41F10001CF
:100A900030BD10B5044600F001F90068005D00F0BB
:100AA000010010BD2DE9F0411F46044603260168F0
:100AB000072A01F4006004DB08B116A505E016A5BD
:100AC00003E008B115A500E015A521F01000206095
:100AD000A069C01EA0610FB1401EA0612046AFF307
:100AE00000804FB1D4E9012138469047206A401C6C
:100AF0002062C01C206206E0206AFAE7D4E90121E6
:100B000015F8010B9047761EF8D22046AFF300800F
:100B1000BDE8F0814E414E006E616E00494E4600C8
:100B2000696E6600426842B1016811F8013B23B169
:100B3000521EC0E90012184670470121C160881E8C
:100B4000704742685AB1C368016843B983688B42F1
:100B500005D0491E521CC0E90012002070474FF01A
:100B6000FF3070472DE9F047814616468AB033487A
:100B700078440DC88DE80D0030487844801C03ACE3
:100B80000DC884E80D0041F69B300844372190FBE6
:100B9000F1F290FBF1F5A5F1800501FB12041B3C7D
:100BA00002D56442012000E00020DFF890A08046DA
:100BB0000027FA44AAF1BE0A0DE0E00709D0324648
:100BC000684607EB47010AEB810101F016F88DE852
:100BD000070064107F1C002CEFD1184F7F44AC3FFE
:100BE00018E0E80714D007EB04100DF1180A90E89C
:100BF0000E008AE80E00C068F04201D198190890F2
:100C0000324606A903A800F0F8FF03AB83E807000B
:100C10006D10641C002DE4D132466946B8F1000F16
:100C200003A802D000F0C1FF01E000F0E6FFC9E92F
:100C30000001C9F808200AB0BDE8F0874CA90000FF
:100C4000007B00F080007047004870475C02002085
:100C50007546FFF7F9FFAE4605006946534620F09A
:100C60000700854618B020B5FFF7D4FABDE820404C
:100C70004FF000064FF000074FF000084FF0000B58
:100C800021F00701AC46ACE8C009ACE8C009ACE80B
:100C9000C009ACE8C0098D467047000010B5FFF7E9
:100CA000ABFE001D10BD00BFBD7D00002DE9FF4F54
:100CB000064689B00878FF2806D0491C2D2805D0A3
:100CC00000244FF0000908E000200CE00124F8E7C0
:100CD00009EB8903491C00EB43090878FF28F7D189
:100CE00014B1C9F100008146107800252C46AA46AF
:100CF00029462D2801D02B2804D1521C2D2813D091
:100D0000002082468B461078FF280FD04FF0000C51
:100D10000A21521CA5FB017804FB018105FB0C1183
:100D2000C5194BEB0104EEE70120EAE70021084674
:100D30004FF00000BAF1000F02D000EB8000400835
:100D4000C0F38158B8F1010F01DD4FF0FF380C9866
:100D500009EB000755EA040009D04FF0020917F526
:100D6000FA7F0BDA4FEACA70C6E900B012E04FEA28
:100D7000CA70C6E900B00DB0BDE8F08FB7F5FA7FD4
:100D80000DDDF0487844D0E90010C6E9001040EAD3
:100D9000CA707060FFF734FEC0F80090EBE7391EB0
:100DA00002DAC8F1000200E0424600DA794206A801
:100DB000FFF7D8FE06AB93E8070003AB83E8070014
:100DC00044F23E005BEA04010090584604D144F22C
:100DD0001E012C465D460091210C0904014306D1F9
:100DE0000099240444EA15442D041039009104F0BC
:100DF0007F41014306D10099240244EA15642D0283
:100E00000839009104F07041014306D10099240192
:100E100044EA15742D01091F009104F0404101437B
:100E200006D10099A40044EA9574AD00891E009192
:100E300004F00041084304D100986D196441401E3C
:100E4000009042466846002FCDE9014503A902DD26
:100E500000F0E7FE01E000F0BCFEBAF1000F04462E
:100E60000D4601D084F0004440F2FF7724F00040AA
:100E7000284303D0C4F30A50B84212D1FFF7C0FD93
:100E8000C0F80090C4F30A50B8420AD1AE48784482
:100E9000D0E90010C6E9001004F00041084370607A
:100EA00069E7C6E9005466E72DE9FF4F1F464FF09A
:100EB000000A4FF0FF38454691B0D7E90146CDF81A
:100EC0003CA0FFF799FDC0680168405C1090B969CB
:100ED00012986D1C8847396A814688470028F6D1E8
:100EE000B9F1FF3F0AD0002E24F4D06411DDB9F12E
:100EF0002B0F08D0B9F12D0F0BD102E0404615B0F1
:100F00003AE744F48064B96912986D1C8847761EEC
:100F10008146600504A901D52D2000E02B20002E7C
:100F200001F1010B0DF130088DF810003FDDB9F132
:100F3000690F08D0B9F1490F05D0B9F16E0F02D091
:100F4000B9F14E0F1CD13B4601A8009580E8500234
:100F5000DDE912126FF0020008F05DFEC11CCED177
:100F60000EE0B96912986D1C884781461398761E69
:100F700044F4007405600F98401C002E0F9016DD9D
:100F8000B9F1300FEDD0B9F1780F02D0B9F1580FA7
:100F90000DD10F9801280AD13B46CDE90054DDE977
:100FA0001212001F029608F034FEC11CA7D110993E
:100FB00089453ED144F0800406E01399681CAAF1EB
:100FC000010A44F400740860B9696D1C1298761E19
:100FD000884730288146F0D02BE01099894505D10B
:100FE000200603D4761E44F0800418E0484607F03B
:100FF00064FB08B3761E0DF123018B4544F40074A5
:1010000008D2A9F130000BF8010B200607D5AAF190
:10101000010003E0200602D40AF101008246A00587
:1010200002D51399681C0860B96912986D1C88472D
:101030008146002ED1DC53E0002E51DDB9F1650F61
:1010400002D0B9F1450F4BD1A00549D5B9696D1C46
:101050001298761E24F440748847002E81460CDDD9
:101060002B2804D0B9F12D0F07D144F48074B9694D
:1010700012986D1C8847761E8146E00501D52D210A
:1010800000E02B2108F8011BCDF8008021E0761E3E
:101090000DF13901884544F400740CD2A9F13000F7
:1010A00010F0FF0088F8000002D10099884509D9A6
:1010B00008F1010806E0E00501D5244801E042F20C
:1010C0000F708246B96912986D1C88478146139843
:1010D0000560002E04DD484607F0EFFA0028D6D15F
:1010E000F96912988847FF2053468BF8000088F86A
:1010F000000000200A900B9004AA0CA90AA8FFF790
:10110000D5FDA00502D46FF00100F8E614F0240F1D
:101110000AD0E00714D13868DDE90A12031D3B60EC
:101120000068C0E900120BE00AA9684607F06EFAF1
:10113000E00705D13868009A011D39600068026037
:101140002846DCE670A7000066A60000F1D8FFFF85
:1011500010B50446AFF300802046BDE81040FFF70D
:1011600044B800004FF0013C50F8042B51F8043B08
:101170009A4221D1A2EB0C03934313EACC1317D16B
:1011800050F8042B51F8043B9A4215D1A2EB0C0302
:10119000934313EACC130BD150F8042B51F8043BC2
:1011A0009A4209D1A2EB0C03934313EACC13DBD090
:1011B0004FF00000704700BFD01A01BAB1FA81F1B8
:1011C00001F0180122FA01F0CB40C1F12001DBB29D
:1011D000C0B2C01A2CFA01F3D11A914311EAC3111B
:1011E000E6D170472DE9FF4F1F464FF03C0987B00D
:1011F0004FF00042DDE9141001F10108DDF858A0BC
:1012000002EA4050039000200490834605460446BD
:101210000590B969461E08988847AAF1010A02900C
:10122000BAF1000F37DD02982E2815D0102100F0FA
:1012300012FA00282ADB4FF0010B0499014316D063
:10124000B9F1000F0BDB4A46C11700F0F1F9054375
:101250000C43A9F1040905E00120059007E008B15D
:1012600045F0010501200490059800B9361DB969C3
:10127000089808F101088847BBF1000FAAF1010A9C
:101280000290CDD00999C1F80080C9E70298702872
:1012900008D0502806D0F96908988847BBF1000F9C
:1012A00014D04FE0002002900120BBF1000F049009
:1012B00009D0B969089808F101088847AAF101091D
:1012C000B9F1000F07DCF969089888476FF0010051
:1012D0000BB0BDE8F08F2B2804D02D280CD14FF097
:1012E000FF300490B969089808F101088847A9F10E
:1012F0000109B9F1000FE6DD411CE4D00A2100F03C
:10130000AAF90028DFDB029908F1010801EB81014D
:1013100000EB41000290B969089888470A2100F063
:101320009AF9099AA9F10109B9F1000FC2F80080F0
:1013300001DD0028E7DAF9690898884704990298DE
:1013400000FB016655EA040004D004F040410900A6
:1013500002D006E0039898E0A40044EA9574AD003A
:10136000B61E04F00041080002D16D196441761EDA
:10137000159810F0240F03D04FF00B095C4803E0E0
:101380004FF028096FF07D008246564507DAAAEB38
:1013900006018944B9F1410F01DD4FF041090120F7
:1013A0000021A9F1010200F043F9024628400B4652
:1013B0002140084301D0012100E00021501E02918C
:1013C00043F1FF3128402140084301D0012000E0D3
:1013D00000200299834651EA0B014FD000210846B4
:1013E0004FF00000039900F4400039B100EB800099
:1013F0004FF4400100EBD07001EA60008015012835
:1014000002DD4FF0FF3000E013D0401C36D00298D0
:1014100060B3BBF1000F0CD14A460120002100F05F
:1014200007F928402140084301D0012000E00020B6
:10143000E0B101204A46002100F0FAF803464019C5
:101440000A4661412D1A8C4111D3B9F1400F09DDD3
:10145000159810F0240F02D0AAF1340603E0AAF187
:10146000170600E0761C00254FF0004406E05B1EE6
:1014700042F1FF3220EA030521EA0204CAF1010029
:10148000B04206DA1B4903980843019000200090FF
:101490000EE0039AC4F3D321E80A0A43164940EA4E
:1014A00044500A433146CDE90002684607F0FAF895
:1014B000159810F0240F0BD01598C00715D1386877
:1014C000DDE90012031D3B600068C0E900120CE07A
:1014D00002A8694607F09AF81598C00705D1386840
:1014E000029A011D3960006802604046F0E6000083
:1014F00002FCFFFF0000F07F0000F03F2DE9FF4FEE
:1015000092461D4685B04FF00041DDE9124BDDE902
:1015100014727F1E01EA4B50414940F0FF4940EAF6
:101520000108002122F020004928049102D04E2811
:1015300028D04CE03BA0012607C88DE80700A96928
:101540000698641C88477F1E014606D41DF80600D5
:1015500018B121F0200181420BD0E9690698884733
:10156000032E34D0082E32D06FF0010009B0BDE850
:10157000F08F761C032E01D0082EE0D1601CCAF833
:101580000000DCE7A9690698641C88477F1E2AD4FE
:1015900020F02000412826D1A9690698641C8847BC
:1015A0007F1E20D420F020004E281CD1A969069867
:1015B000641C88477F1E48F4002849F48009CAF853
:1015C000004001D4282806D0E969069888475FEAD8
:1015D000CB7012D022E0A9690698641C88477F1E50
:1015E00001D4002803DAE96906988847BCE729286E
:1015F000F1D1641CCAF80040E9E71BF0240F07D0C2
:1016000028680499031D2B600068C0E9001805E0F4
:101610002868021D2A600068C0F800902046A5E7EF
:101620000000F07F494E46494E49545900000000E1
:10163000B2F120030AD5C2F1200301FA02F120FA27
:1016400003F300FA02F041EA0301704700FA03F1E4
:101650004FF0000070473A2800D2303820F02002C6
:10166000412A01D3A2F13700884201D34FF0FF3065
:1016700070475FEA400C08BF91F0000F4FEA8C23DF
:101680004FEAC12243EA51514FEA1C5018BF00F5FE
:10169000F0404FEA300018BF41F000415FEA6C5C57
:1016A00000F02980BCF1FF3F08BF40F08040704748
:1016B000130C06BF12044FF0100C4FF0000C130E69
:1016C00004BF12020CF1080C130F04BF12010CF13D
:1016D000040C930F04BF92000CF1020CD30F04BF53
:1016E00052000CF1010C11464FF00002A0F11F0056
:1016F000A0EB0C00704711F0004F08BF704731F0AD
:1017000000413FF4D5AF0B0C06BF09044FF0100C9D
:101710004FF0000C0B0E04BF09020CF1080C0B0F6C
:1017200004BF09010CF1040C8B0F04BF89000CF1FC
:10173000020CCB0F04BF49000CF1010CCCF12003CB
:10174000A0EB0C0022FA03F302FA0CF241EA0301C7
:1017500000F10100704720F07F4C80EA030023F085
:101760007F47ACEB070303F57C5300F0004003F127
:10177000FF032DE980494FEA154B09B44FEA1443A2
:1017800025EA0B4E24EA03480FF2042606EB132742
:1017900049083E785FEA320203FB0667C7F5000797
:1017A00007FB06F64FEA54374FEAD64606F1020623
:1017B00007FB066CCCF1005C4FEA1C472CEA074C97
:1017C00007FB06F40CFB06F504EB15464FEA9616EC
:1017D00034BF00204FF000404FEAD13706FB07FC32
:1017E0004FEA1C4C0CFB0BF7D21B03FB0CF761EB15
:1017F00007010CFB0EF7B0EB074072EB17420CFB36
:1018000008F734BFA2EB0742B2EB074261EB174186
:101810004FEA0C444FEA910706FB07FC4FEA1C4CC9
:101820000CFB0BF7B0EBC74072EB573203FB0CF726
:1018300034BFA2EBC742B2EBC74261EB57310CFB9E
:101840000EF7B0EBC70072EB57720CFB08F734BF12
:10185000A2EBC702B2EBC70261EB5771039F4FEADD
:10186000816141EA921104EBCC044FEAD1374FEA8F
:10187000826206FB07FC42EA90124FEA80604FEA60
:101880001C4C0CFB0BF7D21B03FB0CF761EB0701A5
:101890000CFB0EF7B0EB074072EB17420CFB08F79E
:1018A00034BFA2EB0742B2EB074261EB17414FEAAC
:1018B0008C554FEA910704EB9C2406FB07FC4FEA8A
:1018C0001C4C0CFB0BF7B0EBC74072EB573203FB21
:1018D0000CF734BFA2EBC742B2EBC74261EB573102
:1018E0000CFB0EF7B0EBC70072EB57720CFB08F75E
:1018F00034BFA2EBC702B2EBC70261EB577115EB25
:101900004C254FEA816141EA92114FEA82624FEA27
:10191000D13742EA901206FB07FC44F100044FEA7B
:1019200080604FEA1C4C0CFB0BF7D21B03FB0CF73F
:1019300061EB07010CFB0EF7B0EB074072EB1742AF
:101940000CFB08F734BFA2EB0742B2EB074261EB96
:10195000174115EB1C154FEA813141EA92414FEADC
:10196000823242EA90424FEA80304FEA0C7644F1EC
:10197000000448EA03434EEA0B484FF0000EB2EB76
:10198000080C71EB030724BF624639464EEB0E0E7E
:101990004FF0000B0018524149414BEB0B0BB2EBDF
:1019A000080C71EB03077BF1000B24BF624639463C
:1019B0004EEB0E0E4FF0000B0018524149414BEB1D
:1019C0000B0BB2EB080C71EB03077BF1000B24BF90
:1019D000624639464EEB0E0E51EA020718BF46F03A
:1019E000010616EB0E7655F1000254F1000103D505
:1019F000BDE88901BDE80088BDE88901BDE800486F
:101A0000B619524141EB0101A3F1010370478080F7
:101A10007F7E7D7C7B7A7978777676757473727148
:101A200071706F6E6E6D6C6C6B6A6A696868676600
:101A300066656464636362616160605F5F5E5E5D92
:101A40005D5C5C5B5B5A5A59595858575756565506
:101A500055555454535352525251515050504F4F68
:101A60004F4E4E4D4D4D4C4C4C4B4B4B4A4A4A49B8
:101A700049494848484747474746464645454544FB
:101A800044444443434343424242424141410000B3
:101A900046EA0646A3F570534FEA164646EA425612
:101AA0004FEAD22242EA415210B54FEAD121A3F1C6
:101AB000010300F017F820F0004000F1010C00F0E5
:101AC000004701EB00501146BCF5006F40EA0700EB
:101AD00000D210BD02484FF0000140EA070010BDDF
:101AE0000000F07F002B26D4770021D01CB54FEAF0
:101AF000370703B44FF010004FF010014FF0000013
:101B00000FBCBDE810400BF1010BBBF1010F08BF8A
:101B10005FEA170722BF12F1010211F101014FF034
:101B2000004143F1000300F0004043EA0000704729
:101B3000F9D35708DAE746EA064613F1400F4FEAB1
:101B400016461FDD13F1200FDFBF16430A460021A2
:101B500020335B42C8D0C3F1200746EA064602FAAA
:101B600007F74FEA164646EA0706C3F1200722FAAE
:101B700003F201FA07F721FA03F14FF0000342EAFA
:101B80000702B1E746EA020646EA06464FEA16466B
:101B900046EA0106BCBF46EA0646360C4FF0000393
:101BA0004FF000024FF000019EE72DE9C048934638
:101BB00030B491E8380007C831EA400C48BF34EA35
:101BC000430C03D5FFF7C7FDFFF78CFFF0BCBDE862
:101BD00000882DE9C048934630B491E8380007C822
:101BE00031EA400C48BF34EA430C03D5FFF7B3FD9C
:101BF000FFF74EFFF0BCBDE800882DE9C0489346D2
:101C000030B491E8380007C810F0804F08BF13F0D7
:101C1000804F03D100F019F8FFF764FFF0BCBDE876
:101C200000882DE9C048934630B491E8380007C8D1
:101C300010F0804F08BF13F0804F03D100F005F87B
:101C4000FFF726FFF0BCBDE8008820F07F4780EA60
:101C5000030023F07F4C07EB0C03A3F57C5300F04B
:101C60000040A3F1FE0392F0000F00F0B38095F066
:101C7000000F00F077802DE901494FEA11404FEA4B
:101C8000144621EA004800FB06FC24EA064708FB4C
:101C900006F607FB08F800FB07F718EB06484CEBC5
:101CA000164C4FEA124B18EB07484FEA15464CEB1F
:101CB000174022EA0B4E0BFB06FC25EA06470EFBFB
:101CC00006F607FB0EFE0BFB07F71EEB064E4CEB72
:101CD000164C4FF000061EEB074E4CEB174B18EB63
:101CE0000B0840F1000018EB0E0B58EB000840F118
:101CF00000008F1A4FF000013CBFC943661B14BFA0
:101D0000B5EB040C00213CBFC943F61B4FEA174456
:101D10004EEA8E0E27EA04454FEA1C4704FB076291
:101D20002CEA074C05FB07F70CFB05F604FB0CFC43
:101D300016EB074642EB174216EB0C4642EB1C42F1
:101D40001BEB060658EB0202414146EA9E0601D50E
:101D5000BDE80189B619524141EB0101A3F101032C
:101D6000BDE801894FEA14454FEA114724EA0546C8
:101D700021EA074C05FB07F406FB07F70CFB06F10D
:101D800005FB0CFC11EB074144EB17444FEA1247EB
:101D900011EB0C4144EB1C4422EA074C05FB07F213
:101DA00006FB07F70CFB06F605FB0CFC16EB0746DB
:101DB00042EB174216EB0C4642EB1C456A1854F1F5
:101DC000000148BF7047B619524141EB0101A3F130
:101DD0000103704795F0000F37D04FEA11424FEAE8
:101DE000144721EA024624EA074C02FB07F106FBEE
:101DF00007F70CFB06F402FB0CFC14EB074441EB69
:101E000017414FEA154714EB0C4441EB1C4125EAFE
:101E1000074C02FB07F506FB07F70CFB06F602FB77
:101E20000CFC16EB074645EB174516EB0C4645EB4D
:101E30001C42121951F1000148BF7047B6195241B6
:101E400041EB0101A3F1010370474FEA14454FEA4A
:101E5000114724EA054621EA074C05FB07F106FB7A
:101E600007F70CFB06F24FF0000605FB0CFC12EB2B
:101E7000074241EB174112EB0C4251EB1C4148BFAA
:101E80007047921841EB0101A3F10103704710B5AF
:101E900000F00CFA10BD70B506460C46154608E079
:101EA0003046721C96B200F007F804F8010B681E69
:101EB00085B2002DF4D170BD70B50446002600F047
:101EC000A3FA2546E11704EB11610912A02202EBE7
:101ED0004101C8B200F064FA00F0E2FAE11704EB45
:101EE00011610912A4EB0121C8B200F059FA00F007
:101EF000D7FA00F089FAA12000F052FA00F0D0FAE7
:101F0000002000F015FA064600F0A4FA304670BD35
:101F100070B505460C46164606E02178284600F0C6
:101F200009F8681C85B2641C301EA6F101018EB24E
:101F3000F3D170BD70B504460E4600F065FA254633
:101F4000E11704EB11610912A02202EB4101C8B2B2
:101F500000F026FA00F0A4FAE11704EB116109126F
:101F6000A4EB0121C8B200F01BFA00F099FA304648
:101F700000F016FA00F094FA00F06CFA0A2006F06D
:101F8000DDFB70BD00BFFEE77047000051B182006D
:101F9000A2F1C042126842F001038200A2F1C042E5
:101FA000136009E08200A2F1C0421268034B1A409C
:101FB0008300A3F1C0431A6070470000FEFF0F00CA
:101FC000D0E901121143C268114302691143426909
:101FD000114382691143C2691143026A1143426A83
:101FE0001143826A1143C26A1143026B11430268B2
:101FF0009200A2F1C0421160816808290BD10168EA
:102000008900A1F1C041096841F0400201688900DE
:10201000A1F1C0410A60416B0968426B526841EA14
:102020000211426B926841EA0221426B928941EAB5
:102030000241426B128A41EA0251426B127D41EA2F
:102040000261426B926911430268521C9200A2F134
:10205000C0421160C16AB1F5804F1BD1816B096824
:10206000826B526841EA0211826B926841EA022156
:10207000826B128A41EA0251826B127D41EA02614F
:10208000826B9269114302689200A2F1C042C2F8C9
:10209000041107E06FF0704201688900A1F1C041AE
:1020A000C1F8042170472DE9F041024600250026C1
:1020B000002000230024002791F803C00CF00F0536
:1020C00091F803C00CF0100CBCF1000F03D091F894
:1020D00002C04CEA050591F800C0BCF1000F31D0F8
:1020E000146800202BE04FF0010C0CFA00F3B1F85B
:1020F00000C00CEA03069E4220D183004FF00F0C73
:102100000CFA03F7BC4305FA03FC4CEA040491F80B
:1021100003C0BCF1280F06D14FF0010C0CFA00FCF3
:10212000C2F814C00AE091F803C0BCF1480F05D111
:102130004FF0010C0CFA00FCC2F810C0401C08283B
:10214000D1D31460B1F800C0BCF1FF0F34DD546886
:1021500000202EE000F1080C4FF0010808FA0CF303
:10216000B1F800C00CEA03069E4221D183004FF073
:102170000F0C0CFA03F7BC4305FA03FC4CEA040409
:1021800091F803C0BCF1280F05D100F1080C08FA42
:102190000CF8C2F8148091F803C0BCF1480F07D1C5
:1021A00000F1080C4FF0010808FA0CF8C2F8108092
:1021B000401C0828CED35460BDE8F081F0B50A4633
:1021C000002300240021002500F00046B6F1004F56
:1021D00002D11D4EF16901E01B4E7168C0F3034549
:1021E00083B200F44016B6F5401F08D121F07061AB
:1021F000154E766826F07066134F7E6012E000F48C
:102200008016B6F5801F06D1032606FA05F4A14311
:1022100041F0706106E0460D360103FA06F6B1435F
:1022200041F0706122B1460D360103FA06F63143E2
:1022300000F00046B6F1004F02D1034EF16101E01B
:10224000014E7160F0BD0000000001404161704727
:1022500001617047C160704700BFFEE710B5002004
:102260000F4908600F48006820F070400D49086071
:102270000846006840F04050086000200A49C1F854
:102280009C01022006F080FA012005490860022026
:1022900006F07AFA00200449C1F8980110BD000048
:1022A00098812142000C01400080214208B50121A3
:1022B000082005F0F3FAC020ADF8000010208DF8DA
:1022C000030003208DF8020069460448FFF7EBFE87
:1022D000C0210248FFF7BCFF08BD0000000C014010
:1022E00010B500200F4908600F48006820F07040CA
:1022F0000D4908600846006840F040500860012021
:102300000A49C1F89C01022006F03EFA0120054965
:102310000860022006F038FA00200449C1F898014C
:1023200010BD000098812142000C01400080214234
:1023300070B5054600241748006820F07040154924
:1023400008600846006840F000400860002616E07B
:10235000002011490860022006F016FA01200F49FA
:10236000C1F898016006040E0B487C38006808B17B
:10237000601CC4B2012006F007FA701CC6B2082E19
:10238000E6DB15B9FFF7ACFF01E0FFF767FF20467A
:1023900070BD0000000C0140988121420080214264
:1023A00070B504461548006820F070401349086075
:1023B0000846006840F0405008600020104908605E
:1023C000002517E0E0090E49091D08606006040EAB
:1023D000022006F0D9F901200A49C1F8980102202B
:1023E00006F0D2F9002006490860022006F0CCF978
:1023F000681CC5B2082DE5DB70BD0000000C014073
:10240000988121420080214210B50F48006820F0D9
:1024100070400D4908600846006840F04050086070
:1024200001200A4908600A49C1F89801042006F011
:10243000ABF9002005490860042006F0A5F900204A
:102440000349C1F8980110BD000C01409C81214254
:102450000080214210B50F48006820F070400D49FF
:1024600008600846006840F04050086000200A49B3
:1024700008600A49C1F89C01042006F085F9012092
:10248000054908600549C1F89C01042006F07CF963
:1024900010BD0000000C01409881214200802142C3
:1024A00010B500241448006820F0704012490860FC
:1024B0000846006840F00040086001200F490860AD
:1024C00006F062F901200E49C1F8980106F05CF9A6
:1024D00007E0601CC4B2FA2C03DDFFF7BBFF01204C
:1024E00010BD0648803800680028F2D10349091F52
:1024F000086000BFF4E70000000C01409C8121420D
:102500000080214208B50121802005F0C7F90F2085
:10251000ADF8000010208DF8030003208DF80200B4
:1025200069460A48FFF7BFFD0121802005F0B6F992
:10253000F020ADF8000010208DF8030003208DF886
:10254000020069460148FFF7AEFD08BD001C0140CE
:102550002DE9FC410024FD48006880B240F00F01E5
:10256000FA480C38FFF776FEF848001F006800F0C4
:10257000F00010B90020BDE8FC81052006F0DEF86F
:10258000F248001F006800F0F00008B90020F2E7F0
:10259000EE4800684FF6F0721040411CEB480C38D2
:1025A000FFF758FEE948001F006800F0F00010280F
:1025B00006D0202828D040284AD0802823D16AE09D
:1025C0004FF07E51E248006806F0AAFFE04908603B
:1025D0000846006806F078FF05462A460B46DDA14E
:1025E000DF48FDF737FE0A22DD490020FFF790FCA7
:1025F000DB4810210B46C822CDE900105021E12014
:1026000004F03AFF012469E04FF07E51D0480068A1
:1026100007F026FACE4908600846006806F054FF25
:1026200005462A460B46CBA1CD48FDF713FE0A22EC
:10263000CB490020FFF76CFCC94810210B46C8228B
:10264000CDE900105021E12004F016FF052445E0FB
:10265000C449BF48006806F063FFBD4908600846EA
:10266000006806F031FF05462A460B46B9A1BC4872
:10267000FDF7F0FD0A22BA490020FFF749FCB848EF
:1026800010210B46C822CDE900105021E12004F0B2
:10269000F3FE092422E0B349AD48006807F0E0F9F1
:1026A000AB4908600846006806F00EFF05462A465A
:1026B0000B46A8A1AA48FDF7CDFD0A22A849002093
:1026C000FFF726FCA64810210B46C822CDE90010D2
:1026D0005021E12004F0D0FE0D2400BF00BF00BF58
:1026E0009A48001F006800F0F0000028F8D19748D1
:1026F00000684FF6F0721040811C94480C38FFF7C8
:10270000A9FD9248001F006800F0F000102806D0D4
:1027100020282ED0402856D0802829D17DE092480C
:10272000006806F0D1FE0546904A914B06F0E2F9AA
:10273000074606F0ADF98C4908600846006806F0C7
:10274000C3FE05462A460B468AA18548FDF782FD51
:102750000A2283491520FFF7DBFB814810210B4635
:10276000C822CDE900103C21E12004F085FE0224BE
:102770007DE07D48006806F0A7FE05467B4A7C4B5D
:1027800006F0B8FD074606F083F977490860084669
:10279000006806F099FE05462A460B4675A170486A
:1027A000FDF758FD0A226E491520FFF7B1FB6C4872
:1027B00010210B46C822CDE900103C21E12004F095
:1027C0005BFE062453E06E48006806F07DFE054679
:1027D00000226C4B06F08EF9074606F059F968495D
:1027E00008600846006806F06FFE05462A460B465C
:1027F00065A15B48FDF72EFD0A2259495120FFF7DC
:1028000087FB574810210B46C822CDE900106421F0
:10281000E12004F031FE0A2429E05948006806F05E
:1028200053FE05460022574B06F064FD074606F0AE
:102830002FF9534908600846006806F045FE054632
:102840002A460B4650A14648FDF704FD0A2244499A
:102850005120FFF75DFB424810210B46C822CDE90D
:1028600000106421E12004F007FE0E2400BF00BF29
:1028700000BF3648001F006800F0F0000028F8D1C3
:10288000324800684FF6F0721040011D2F480C3896
:10289000FFF7E0FC2D48001F006800F0F000102852
:1028A00006D020282ED040284FD0802829D198E06B
:1028B0003848006806F008FE05462C4A2C4B06F006
:1028C00019F9074606F0E4F832490860084600683E
:1028D00006F0FAFD05462A460B462FA12048FDF7D3
:1028E000B9FC0A221E492920FFF712FB1C481021BF
:1028F0000B46C822CDE900102821E12004F0BCFDE0
:10290000032499E02348006806F0DEFD0546174AD7
:10291000174B06F0EFFC074606F0BAF81D490860B1
:102920002048006806F0D0FD05462A460B461EA149
:102930000B48FDF78FFC0A2209492920FFF7E8FA26
:10294000074810210B46C82234E03BE00C1C014034
:102950003800002056203A25302E31660000000055
:10296000FC01002000002041340000209A99999930
:102970009999B93F4B443A25302E32660000000049
:102980003C00002000002440474C3A25302E32669F
:1029900000000000300000204B493A25302E3266FE
:1029A000000000002C0000204B503A25302E3266EB
:1029B00000000000CDE900102821E12004F05CFDBA
:1029C000072439E04FF6FF70F0234FF4AA7200217C
:1029D0000090084600F01EFE0020A34908700B245A
:1029E0002AE0A248006806F06FFD05460022A04BD1
:1029F00006F080FC074606F04BF89C490860084644
:102A0000006806F061FD05462A460B46AFF28801D4
:102A10009848FDF71FFC0A2296495120FFF778FAE3
:102A2000944810210B46C822CDE900106421E12012
:102A300004F022FD0F2400BF00BF00BF8E480068D5
:102A400000F0F0000028F9D18B48001D00684FF617
:102A5000F072104040F0080187480838FFF7FAFB91
:102A60008548006800F0F000102806D020282FD0FC
:102A7000402858D080282AD164E08048006806F0B9
:102A800023FD05467E4A7F4B06F034F8074605F0E5
:102A9000FFFF7A4908600846006806F015FD054604
:102AA0002A460B46AFF200117248FDF7D3FB0A220B
:102AB00070493D20FFF72CFA6E4810210B46C822C2
:102AC000CDE900101421E12004F0D6FC0424A4E098
:102AD0006A48006806F0F8FC0546694A694B06F04A
:102AE00009FC074605F0D4FF644908600846006801
:102AF00006F0EAFC05462A460B46AFF254115D4843
:102B0000FDF7A8FB0A225B493D20FFF701FA59486F
:102B100010210B46C822CDE900101421E12004F059
:102B2000ABFC082479E04FF6FF70F0234FF4AA7253
:102B300000210090084600F06DFD01204A49087010
:102B40000C246AE04FF6FF7078234FF4AA72142128
:102B50000090D22000F05EFD28224B490020FFF7B4
:102B60009AF905F003FC49490860474810210B46D3
:102B7000C822CDE900105021E12004F07DFC28227C
:102B800041491520FFF787F905F0F0FB404908603F
:102B90003D4810210B46C822CDE900103C21E12020
:102BA00004F06AFC282238492920FFF774F905F05F
:102BB000DDFB38490860344810210B46C822CDE9B6
:102BC00000102821E12004F057FC28222E493D2046
:102BD000FFF761F905F0CAFB284908602A4810216F
:102BE0000B46C822CDE900101421E12004F044FC7A
:102BF000282225495120FFF74EF905F0B7FB1B4964
:102C00000860214810210B46C822CDE9001064213C
:102C1000E12004F031FC102400BF00BF00BF1648C3
:102C2000006800F0F0000028F9D100211748006882
:102C300006F0DAFD03D800201449086008E01649C0
:102C40001248006806F0D0FE02D813480F49086009
:102C500000210648006806F0C7FD02D8002003499D
:102C60000860204687E400001E0000203C00002091
:102C70000000F03FFC010020081C01402C00002057
:102C80009A9999999999B93F240100203800002018
:102C90003400002030000020000048432DE9FC5F94
:102CA00000BF00BF7E480068B0F5AC7F02D90020AD
:102CB0007B4908607A4800684FF4B47148434FF488
:102CC0002C71B0FBF1FB584606F091F90646002244
:102CD0004FF0804306F0DAF9814605F0D9FE8046D0
:102CE000012000F08FFADC2314221146104600F078
:102CF00069FBDC231A461946142000F063FB69A027
:102D000010210B46C822CDE900101421192004F02F
:102D1000B3FB66A00C210B46C822CDE90010DC21D4
:102D20000F2004F0A9FB62A00C210B46C822CDE9BC
:102D300000101146012004F09FFB5EA00C210B4601
:102D4000C822CDE90010B421012004F095FB5AA05F
:102D50000C210B46C822CDE90010A021012004F06F
:102D60008BFB56A00C210B46C822CDE900108C210C
:102D7000012004F081FB52A00C210B46C822CDE9B2
:102D800000107821012004F077FB4EA00C210B46A7
:102D9000C822CDE900106421012004F06DFB4AA097
:102DA0000C210B46C822CDE900105021012004F06F
:102DB00063FB46A00C210B46C822CDE900103C2144
:102DC000012004F059FB42A00C210B46C822CDE99A
:102DD00000102821012004F04FFB04F09FFB404627
:102DE00006F072FB064632460B463AA13C48FDF718
:102DF00031FA3B4810210B46C822CDE900108C2146
:102E0000E12004F039FB3748048837480588244816
:102E1000006818B9DC20344908801EE020480068AA
:102E2000B0F5AC7F03D100202F49088015E01C4885
:102E3000006890B11A480068B0F5AC7F0DD24FF031
:102E40008041404606F0DAFB0746284906F0FDFDC2
:102E5000064606F095FC2449088022480088401C5C
:102E6000204908804FF6FF70DB2300900846028857
:102E70000021008800F0CEFB1A480088DC2804DD21
:102E80001420184908801424DC25174803881548A5
:102E900002882946204600F095FABDE8FC9F000014
:102EA00040000020416E676C6500000030000000AB
:102EB000343000003830000031323000313630001C
:102EC00032303000323430003238300033323000AB
:102ED00033363000616E676C653A25302E326600FD
:102EE000FC010020280000202A00002000005C4394
:102EF00070B50446002617480588408845431548A4
:102F0000808846F60401884216D11248807901284B
:102F100012D100200F4988712A2048812B208881F6
:102F20000021084604F040F901200A4988712B204D
:102F300048812A20888103E00021084604F034F902
:102F400004F0DAFA002602E003480480761CAE4260
:102F5000FAD370BDEC0100200008006C2DE9FE4F93
:102F600081460C464FF0140B14200290204606F0C8
:102F7000ABFA074600228B4B05F078FE054605F0BC
:102F800087FD8246012000F03DF9DC231422114622
:102F9000104600F017FADC231A461946142000F0F8
:102FA00011FA81A010210B46C822CDE9001014218E
:102FB000192004F061FA484606F086FA05462A46CA
:102FC0000B467AA17C48FDF745F97B4810210B465A
:102FD000C822CDE900108C21E12004F04DFA5046C2
:102FE00006F072FA05462A460B4674A17248FDF7B0
:102FF00031F9714810210B46C822CDE90010A021FB
:10300000E12004F039FA70A00C210B46C822CDE96A
:103010000010DC210F2004F02FFA6CA00C210B46CD
:10302000C822CDE900101146052004F025FA68A059
:103030000C210B46C822CDE90010B421052004F074
:103040001BFA64A00C210B46C822CDE90010A02178
:10305000052004F011FA60A00C210B46C822CDE92E
:1030600000108C21052004F007FA5CA00C210B460F
:10307000C822CDE900107821012004F0FDF958A004
:103080000C210B46C822CDE900106421012004F078
:10309000F3F954A00C210B46C822CDE900105021B1
:1030A000012004F0E9F950A00C210B46C822CDE91B
:1030B00000103C21012004F0DFF94CA00C210B464C
:1030C000C822CDE900102821012004F0D5F948A03C
:1030D0000C210B46C822CDE900101421012004F078
:1030E000CBF904F01BFA4348B0F800B0424800881E
:1030F0000290484606F0E8F905460022134605F01E
:103100000DFF03D1DC203C49088027E0484606F04B
:10311000DBF905460022394B05F000FF03D11420EE
:10312000354908801AE0484606F0CEF905460022E7
:10313000134606F0A9F811D2484606F0C5F905462F
:1031400000222E4B05F066FF08D22D49484606F0B6
:103150007CFC054606F014FB2749088025480088BA
:10316000401C244908804FF6FF70DB23009008467E
:1031700002881421008800F04DFA1E480088DC28DF
:1031800005DD14201B4908808346DC2002901A4884
:103190000388184802885846029900F013F9BDE8E0
:1031A000FE8F000000002440722F73005261643AC9
:1031B00025302E3266000000240200204475747908
:1031C0003A25302E32660000300000003230000018
:1031D000343000003630000038300000313030002C
:1031E0003132300031343000313630003138300087
:1031F000323030002400002026000020000069400A
:1032000000005C4310B50446002C66D16C498871FF
:10321000F02008804FF4A07048800846808849F26A
:10322000413188420BD06648808846F604018842C6
:1032300005D06348808845F2103188421AD12C208D
:103240005F4908812A2048812B2088810846808890
:1032500046F60401884205D05948808845F210316D
:10326000884206D14FF4A070554908804FF4F070A1
:103270004880A1E05248808845F21051884210D120
:103280004FF430504E4908814FF4285048814FF494
:103290002C5088814FF4F07008804FF448704880BB
:1032A0008AE04748808841F6631188420DD12C207E
:1032B000434908812B2048812A2088814FF4F070EF
:1032C00008804FF44870488076E022203C4908810D
:1032D00020204881212088816EE0012038498871B2
:1032E0004FF4A0700880F02048800846808849F29A
:1032F0004131884205D03248808845F210318842F9
:1033000007D12C202E4908812A2048812B20888132
:103310003FE02B48808846F60401884207D12C20E4
:10332000274908812B2048812A20888131E02448C0
:10333000808845F21051884210D14FF43050204916
:1033400008814FF4285048814FF42C5088814FF465
:10335000487008804FF4F07048801AE01848808860
:1033600041F6631188420DD12C20154908812A208D
:1033700048812B2088814FF4487008804FF4F0700A
:10338000488006E022200E49088121204881202023
:1033900088810B48808846F60401884205D0084899
:1033A000808845F21031884206D14FF4F07004490C
:1033B00008804FF4A0704880002003F07FFD10BD0E
:1033C000EC0100202DE9FF4F84B081468A460020A1
:1033D000039002900698A0EB09050798A0EB0A0657
:1033E000CDF80490CDF800A0002D01DD012705E007
:1033F0000DB9002702E04FF0FF376D42002E02DDCD
:103400004FF0010806E016B94FF0000802E04FF057
:10341000FF387642B54201DD2C4600E034464FF0DD
:10342000000B21E0009A91B2019A90B200F022F8CC
:103430000398284403900298304402900398A042D5
:1034400005DD0398001B0390019838440190029811
:10345000A04205DD0298001B0290009840440090B5
:103460000BF101001FFA80FB601C8345DADD08B018
:10347000BDE8F08F30B504460D462946204603F0DE
:1034800093FE04F039F8024800880249088030BDF4
:10349000200000200008006C30B503460C4615469D
:1034A0005A48808849F24131884205D0574880887F
:1034B00045F21031884214D15449488904F016F875
:1034C000181204F00DF8D8B204F00AF84F498889B0
:1034D00004F00CF8201204F003F8E0B204F000F855
:1034E0008CE04A48808845F21051884220D14749F3
:1034F000488903F0FBFF181203F0F2FF43494989A2
:10350000491C88B203F0F2FFD8B203F0E9FF3F494B
:10351000888903F0EBFF201203F0E2FF3B49898921
:10352000491C88B203F0E2FFE0B203F0D9FF65E086
:103530003648808841F66311884228D13348807923
:1035400020B932480088401EC01A83B22F494889EA
:1035500003F0CCFF181203F0C3FFD8B203F0C0FF92
:10356000181203F0BDFFD8B203F0BAFF27498889CB
:1035700003F0BCFF201203F0B3FFE0B203F0B0FF92
:10358000201203F0ADFFE0B203F0AAFF36E01F48BF
:10359000808846F6040188421DD11C4880790128A4
:1035A00004D11A480088401EC01A83B217494889BE
:1035B00003F09CFF181203F093FFD8B203F090FFC2
:1035C0001249888903F092FF201203F089FFE0B2CC
:1035D00003F086FF12E00D488079012804D10B48E2
:1035E0000088401EC01A83B208494889194603F072
:1035F0008DFF06498889214603F088FF034800892A
:1036000003490880881C058030BD0000EC010020C3
:10361000FE07006C2DE9FC4F05460E4617469846FE
:10362000DDF82C90002001902748808846F60401A0
:10363000884229D124488079012825D1AB463546D6
:1036400021480088C01B401E86B247461E4800889D
:10365000A0EB0B00401E1FFA80F800201A49887169
:103660002A2048812B20888143463A463146284605
:10367000CDF80090FFF7CEFF0120134988712B2071
:1036800048812A2088811CE0781B401C80B2019070
:10369000344614E02146284603F086FD03F02CFF53
:1036A0004FF0000A06E00948A0F800900AF1010076
:1036B0001FFA80FA01988245F5DB601C84B244450C
:1036C000E8DDBDE8FC8F0000EC0100200008006C84
:1036D00000B59FB00121080204F0C0F801214FF4A9
:1036E000B47004F0DBF80120ADF8780010208DF8FC
:1036F0007B0003208DF87A001EA9FE48FEF7D3FC5C
:103700004CF23370ADF8780018208DF87B00032060
:103710008DF87A001EA9F848FEF7C5FC4FF68070B8
:10372000ADF8780018208DF87B0003208DF87A0022
:103730001EA9F248FEF7B7FC41F20100ADF878008F
:1037400018208DF87B0003208DF87A001EA9EC4824
:10375000FEF7A9FC01200890002009900F200A9094
:1037600000200B900C900D900E9001900290032081
:1037700003900020049005900690079006200F907B
:10378000002010901190102012900020139015909E
:103790001490169017904FF48050189000201990B4
:1037A0004FF480401A9000201B9008A81C9001A89C
:1037B0001D900FA8FEF704FC01210620FEF7E6FB92
:1037C000322004F0BBFF002003F042FBCD4988808B
:1037D00008468088FF280ADB084680884FF6FF717C
:1037E000884204D0C7488088B0F5134F7ED1D320DB
:1037F00003F07CFE03F022FBC249888003F01EFB2D
:10380000C049888003F01AFBBE498880084680883A
:103810004FF6FF7101EA0020BA49888003F00EFBE1
:10382000B84989880843B74988800846808849F2A2
:10383000413188425AD0BF2003F058FE03F0FEFA0F
:10384000B049888003F0FAFAAE49888003F0F6FAAE
:10385000AC49888003F0F2FAAA498880084680883B
:103860004FF6FF7101EA0020A649888003F0E6FACE
:10387000A44989880843A34988800846808846F679
:10388000040188427AD0D42003F030FE03F0D6FA47
:103890009C49888003F0D2FA9A49888003F0CEFAD6
:1038A00098498880084680884FF6FF7101EA002019
:1038B0009449888003F0C2FA924989880843914963
:1038C00088800846808845F21031884256D04FF4EF
:1038D0005A4003F00BFE03F0B1FA8A4988804FF496
:1038E0005B4003F003FE03F0A9FA00E046E08549DF
:1038F0008880084680884FF6FF7101EA00208149E0
:1039000088804FF45C4003F0F1FD03F097FA7D49A5
:10391000898808437B49888008468088B0F5004F35
:1039200002D145F2105088807648808845F21051C7
:10393000884223D0A12003F0D9FD03F07FFA71491A
:10394000888003F07BFA6F498880084680884FF6AC
:10395000FF7101EA00206B49888003F06FFA694922
:1039600089880843674988800846808845F26171E4
:10397000884203D141F6631062498880614881889A
:1039800061A0FCF75BFC5F48808849F241318842C6
:103990007ED1CF2003F0AAFD002003F0A1FDC120BD
:1039A00003F09EFD302003F09BFDED2003F09EFD13
:1039B000642003F095FD032003F092FD122003F034
:1039C0008FFD812003F08CFDE82003F08FFD852022
:1039D00003F086FD102003F083FD7A2003F080FDC4
:1039E000CB2003F083FD392003F07AFD2C2003F077
:1039F00077FD002003F074FD342003F071FD0220F8
:103A000003F06EFDF72003F071FD202003F068FD48
:103A1000EA2003F06BFD002003F062FD002003F0BC
:103A20005FFDC02003F062FD1B2003F059FDC120A3
:103A300003F05CFD012003F053FDC52003F056FDAB
:103A4000302003F04DFD302003F04AFDC72003F085
:103A50004DFDB72003F044FD362003F047FD48201C
:103A600003F03EFD3A2003F041FD552003F038FD00
:103A7000B12003F03BFD002003F032FD1A2003F0DB
:103A80002FFDB62003F032FD0A2003F029FD00E0EF
:103A9000AAE0A22003F024FDF22003F027FD00207D
:103AA00003F01EFD262003F021FD012003F018FD88
:103AB000E02003F01BFD0F2003F012FD2A2003F08D
:103AC0000FFD282003F00CFD082003F009FD0E2057
:103AD00003F006FD082003F003FD542003F000FD71
:103AE000A92003F0FDFC432003F0FAFC0A2003F0B8
:103AF000F7FC11E0000C01400014014000180140E7
:103B000000200140EC010020204C43442049443A6D
:103B100025780D0A000000000F2003F0E1FC0020D2
:103B200003F0DEFC002003F0DBFC002003F0D8FCF7
:103B3000002003F0D5FCE12003F0D8FC002003F0C6
:103B4000CFFC152003F0CCFC172003F0C9FC0720A4
:103B500003F0C6FC112003F0C3FC062003F0C0FCF8
:103B60002B2003F0BDFC562003F0BAFC3C2003F0F0
:103B7000B7FC052003F0B4FC102003F0B1FC0F20CB
:103B800003F0AEFC3F2003F0ABFC3F2003F0A8FCA9
:103B90000F2003F0A5FC2B2003F0A8FC002003F06D
:103BA0009FFC002003F09CFC012003F099FC3F20C7
:103BB00003F096FC2A2003F099FC002003F090FC0F
:103BC000002003F08DFC002003F08AFCEF2003F0BE
:103BD00087FC112003F08AFC782004F0AFFD292037
:103BE00003F084FC03F01AB9FE48808846F604010D
:103BF00088427CD1112003F079FC142004F09EFD52
:103C0000D02003F073FC072003F06AFC422003F08D
:103C100067FC1D2003F064FCD12003F067FC00204A
:103C200003F05EFC1A2003F05BFC092003F058FC53
:103C3000D22003F05BFC012003F052FC222003F0B1
:103C40004FFCC02003F052FC102003F049FC3B2045
:103C500003F046FC002003F043FC022003F040FC8C
:103C6000112003F03DFCC52003F040FC032003F0CD
:103C700037FCC82003F03AFC002003F031FC25207B
:103C800003F02EFC212003F02BFC052003F028FC80
:103C9000002003F025FC0A2003F022FC652003F03D
:103CA0001FFC252003F01CFC772003F019FC50209A
:103CB00003F016FC0F2003F013FC002003F010FCAF
:103CC000F82003F013FC012003F00AFCFE2003F0AF
:103CD0000DFC002003F004FC022003F001FC202076
:103CE00003F004FC362003F001FC082000E02CE087
:103CF00003F0F6FB3A2003F0F9FB552003F0F0FB4C
:103D00002B2003F0F3FB002003F0EAFB002003F07C
:103D1000E7FB012003F0E4FB3F2003F0E1FB2A2056
:103D200003F0E4FB002003F0DBFB002003F0D8FBF2
:103D3000012003F0D5FBDF2003F0D2FB782004F054
:103D4000FDFC292003F0D2FB4CE7A648808845F211
:103D50001031884240F07C87ED2003F0C7FB012042
:103D600003F0BEFBFE2003F0BBFBEE2003F0BEFB26
:103D7000DE2003F0B5FB212003F0B2FBF12003F0BD
:103D8000B5FB012003F0ACFBDF2003F0AFFB1020FC
:103D900003F0A6FBC42003F0A9FB8F2003F0A0FBD7
:103DA000C62003F0A3FB002003F09AFBE22003F0FF
:103DB00097FBE22003F094FBE22003F091FBBF208D
:103DC00003F094FBAA2003F08BFBB02003F08EFBE2
:103DD0000D2003F085FB002003F082FB0D2003F093
:103DE0007FFB002003F07CFB112003F079FB002017
:103DF00003F076FB192003F073FB002003F070FB47
:103E0000212003F06DFB002003F06AFB2D2003F05E
:103E100067FB002003F064FB3D2003F061FB002002
:103E200003F05EFB5D2003F05BFB002003F058FB1A
:103E30005D2003F055FB002003F052FBB12003F09E
:103E400055FB802003F04CFB002003F049FB8B2046
:103E500003F046FB002003F043FB962003F040FBF9
:103E6000002003F03DFBB22003F040FB002003F0F4
:103E700037FB002003F034FB022003F031FB00206D
:103E800003F02EFB032003F02BFB002003F028FBA4
:103E9000B32003F02BFB002003F022FB002003F0F3
:103EA0001FFB002003F01CFB002003F019FB002087
:103EB00003F016FB002003F013FB002003F010FBBF
:103EC000002003F00DFB002003F00AFB002003F0AC
:103ED00007FB002003F004FB002003F001FB00209F
:103EE00003F0FEFA002003F0FBFA002003F0F8FADA
:103EF000002003F0F5FA002003F0F2FA002003F0AE
:103F0000EFFA002003F0ECFA002003F0E9FA0020B9
:103F100003F0E6FA002003F0E3FA002003F0E0FAF1
:103F2000002003F0DDFAB42003F0E0FA8B2003F068
:103F3000D7FA002003F0D4FA962003F0D1FA00203B
:103F400003F0CEFAA12003F0CBFA002003F0C8FA68
:103F5000B52003F0CBFA022003F0C2FA002003F0F0
:103F6000BFFA032003F0BCFA002003F0B9FA0420E2
:103F700003F0B6FA002003F0B3FAB62003F0B6FA65
:103F8000002003F0ADFA002003F0AAFAB72003F0F6
:103F9000ADFA002003F0A4FA002003F0A1FA3F20BC
:103FA00003F09EFA002003F09BFA5E2003F098FADB
:103FB000002003F095FA642003F092FA002003F049
:103FC0008FFA8C2003F08CFA002003F089FAAC20E1
:103FD00003F086FA002003F083FADC2003F080FA75
:103FE000002001E0EC01002003F07AFA702003F0D9
:103FF00077FA002003F074FA902003F071FA0020A1
:1040000003F06EFAEB2003F06BFA002003F068FA7D
:10401000DC2003F065FA002003F062FAB82003F018
:1040200065FA002003F05CFA002003F059FA002042
:1040300003F056FA002003F053FA002003F050FA80
:10404000002003F04DFA002003F04AFA002003F0AC
:1040500047FABA2003F04AFA242003F041FA00207C
:1040600003F03EFA002003F03BFA002003F038FA98
:10407000C12003F03BFA202003F032FA002003F0C5
:104080002FFA542003F02CFA002003F029FAFF2025
:1040900003F026FA002003F023FAC22003F026FAE8
:1040A0000A2003F01DFA002003F01AFA042003F09E
:1040B00017FA002003F014FAC32003F017FA3C208B
:1040C00003F00EFA002003F00BFA3A2003F008FA8E
:1040D000002003F005FA392003F002FA002003F073
:1040E000FFF9372003F0FCF9002003F0F9F93C2038
:1040F00003F0F6F9002003F0F3F9362003F0F0F9AD
:10410000002003F0EDF9322003F0EAF9002003F07B
:10411000E7F92F2003F0E4F9002003F0E1F92C2067
:1041200003F0DEF9002003F0DBF9292003F0D8F9D1
:10413000002003F0D5F9262003F0D2F9002003F087
:10414000CFF9242003F0CCF9002003F0C9F9242092
:1041500003F0C6F9002003F0C3F9232003F0C0F9EF
:10416000002003F0BDF93C2003F0BAF9002003F071
:10417000B7F9362003F0B4F9002003F0B1F932208A
:1041800003F0AEF9002003F0ABF92F2003F0A8F9FB
:10419000002003F0A5F92C2003F0A2F9002003F081
:1041A0009FF9292003F09CF9002003F099F92620BB
:1041B00003F096F9002003F093F9242003F090F91E
:1041C000002003F08DF9242003F08AF9002003F089
:1041D00087F9232003F084F9002003F081F9C4203B
:1041E00003F084F9622003F07BF9002003F078F9F2
:1041F000052003F075F9002003F072F9842003F024
:104200006FF9002003F06CF9F02003F069F9002049
:1042100003F066F9182003F063F9002003F060F959
:10422000A42003F05DF9002003F05AF9182003F0F0
:1042300057F9002003F054F9502003F051F9002001
:1042400003F04EF90C2003F04BF9002003F048F97D
:10425000172003F045F9002003F042F9952003F000
:104260003FF9002003F03CF9F32003F039F9002076
:1042700003F036F9E62003F033F9002003F030F9BB
:10428000C52003F033F9322003F02AF9002003F0AF
:1042900027F9442003F024F9002003F021F96520D8
:1042A00003F01EF9002003F01BF9762003F018F943
:1042B000002003F015F9882003F012F9002003F024
:1042C0000FF9C62003F012F9202003F009F90020AD
:1042D00003F006F9172003F003F9002003F000F9BA
:1042E000012003F0FDF8002003F0FAF8C72003F0E6
:1042F000FDF8002003F0F4F8002003F0F1F80020AE
:1043000003F0EEF8002003F0EBF8C82003F0EEF81D
:10431000002003F0E5F8002003F0E2F8002003F0AD
:10432000DFF8002003F0DCF8C92003F0DFF80020FC
:1043300003F0D6F8002003F0D3F8002003F0D0F803
:10434000002003F0CDF8002003F0CAF8002003F0AD
:10435000C7F8002003F0C4F8002003F0C1F80020E3
:1043600003F0BEF8002003F0BBF8002003F0B8F81B
:10437000002003F0B5F8002003F0B2F8002003F0AD
:10438000AFF8002003F0ACF8002003F0A9F8E0201B
:1043900003F0ACF8162003F0A3F8002003F0A0F817
:1043A0001C2003F09DF8002003F09AF8212003F070
:1043B00097F8002003F094F8362003F091F80020DD
:1043C00003F08EF8462003F08BF8002003F088F805
:1043D000522003F085F8002003F082F8642003F0F7
:1043E0007FF8002003F07CF87A2003F079F80020B1
:1043F00003F076F88B2003F073F8002003F070F8D8
:10440000992003F06DF8002003F06AF8A82003F06B
:1044100067F8002003F064F8B92003F061F8002089
:1044200003F05EF8C42003F05BF8002003F058F8B6
:10443000CA2003F055F8002003F052F8D22003F010
:104440004FF8002003F04CF8D92003F049F8002081
:1044500003F046F8E02003F043F8002003F040F8B2
:10446000F32003F03DF8002003F03AF8E12003F0D8
:104470003DF8162003F034F8002003F031F81C203A
:1044800003F02EF8002003F02BF8222003F028F888
:10449000002003F025F8362003F022F8002003F076
:1044A0001FF8452003F01CF8002003F019F85220F3
:1044B00003F016F8002003F013F8642003F010F85E
:1044C000002003F00DF87A2003F00AF8002003F032
:1044D00007F88B2003F004F8002003F001F899207E
:1044E00002F0FEFF002002F0FBFFA82002F0F8FF20
:1044F000002002F0F5FFB92002F0F2FF002002F0E8
:10450000EFFFC42002F0ECFF002002F0E9FFCA2018
:1045100002F0E6FF002002F0E3FFD22002F0E0FF0D
:10452000002002F0DDFFD82002F0DAFF002002F0C8
:10453000D7FFE02002F0D4FF002002F0D1FFF320EB
:1045400002F0CEFF002002F0CBFFE22002F0CEFF0F
:10455000052002F0C5FF002002F0C2FF0B2002F090
:10456000BFFF002002F0BCFF1B2002F0B9FF0020BB
:1045700002F0B6FF342002F0B3FF002002F0B0FFDB
:10458000442002F0ADFF002002F0AAFF4F2002F00D
:10459000A7FF002002F0A4FF612002F0A1FF00208D
:1045A00002F09EFF792002F09BFF002002F098FFAE
:1045B000882002F095FF002002F092FF972002F081
:1045C0008FFF002002F08CFFA62002F089FF002060
:1045D00002F086FFB72002F083FF002002F080FF88
:1045E000C22002F07DFF002002F07AFFC72002F017
:1045F00077FF002002F074FFD12002F071FF00204D
:1046000002F06EFFD62002F06BFF002002F068FF80
:10461000DD2002F065FF002002F062FFF32002F0CF
:104620005FFF002002F05CFFE32002F05FFF052047
:1046300002F056FF002002F053FF0A2002F050FF64
:10464000002002F04DFF1C2002F04AFF002002F083
:1046500047FF332002F044FF002002F041FF4420D6
:1046600002F03EFF002002F03BFF502002F038FF36
:10467000002002F035FF622002F032FF002002F03D
:104680002FFF782002F02CFF002002F029FF882065
:1046900002F026FF002002F023FF972002F020FF07
:1046A000002002F01DFFA62002F01AFF002002F0F9
:1046B00017FFB72002F014FF002002F011FFC22004
:1046C00002F00EFF002002F00BFFC72002F008FFEF
:1046D000002002F005FFD12002F002FF002002F0CE
:1046E000FFFED52002F0FCFE002002F0F9FEDD20E6
:1046F00002F0F6FE002002F0F3FEF32002F0F0FEDE
:10470000002002F0EDFEE42002F0F0FE012002F0B5
:10471000E7FE002002F0E4FE012002F0E1FE0020AE
:1047200002F0DEFE022002F0DBFE002002F0D8FEE6
:104730002A2002F0D5FE002002F0D2FE3C2002F03A
:10474000CFFE002002F0CCFE4B2002F0C9FE00207C
:1047500002F0C6FE5D2002F0C3FE002002F0C0FEA3
:10476000742002F0BDFE002002F0BAFE842002F0A8
:10477000B7FE002002F0B4FE932002F0B1FE00204C
:1047800002F0AEFEA22002F0ABFE002002F0A8FE76
:10479000B32002F0A5FE002002F0A2FEBE2002F02F
:1047A0009FFE002002F09CFEC42002F099FE002033
:1047B00002F096FECD2002F093FE002002F090FE63
:1047C000D32002F08DFE002002F08AFEDD2002F0F0
:1047D00087FE002002F084FEF32002F081FE00201C
:1047E00002F07EFEE52002F081FE002002F078FE5D
:1047F000002002F075FE002002F072FE002002F0A0
:104800006FFE022002F06CFE002002F069FE2920FB
:1048100002F066FE002002F063FE3C2002F060FE23
:10482000002002F05DFE4B2002F05AFE002002F054
:1048300057FE5D2002F054FE002002F051FE74206D
:1048400002F04EFE002002F04BFE842002F048FEF3
:10485000002002F045FE932002F042FE002002F00C
:104860003FFEA22002F03CFE002002F039FEB32001
:1048700002F036FE002002F033FEBE2002F030FED1
:10488000002002F02DFEC42002F02AFE002002F0DB
:1048900027FECD2002F024FE002002F021FED320CE
:1048A00002F01EFE002002F01BFEDC2002F018FECB
:1048B000002002F015FEF32002F012FE002002F0AC
:1048C0000FFEE62002F012FE112002F009FE002089
:1048D00002F006FE342002F003FE002002F000FE8B
:1048E000562002F0FDFD002002F0FAFD762002F0D5
:1048F000F7FD002002F0F4FD772002F0F1FD00202A
:1049000002F0EEFD662002F0EBFD002002F0E8FD73
:10491000882002F0E5FD002002F0E2FD992002F07F
:10492000DFFD002002F0DCFDBB2002F0D9FD0020FD
:1049300002F0D6FD992002F0D3FD002002F0D0FD58
:10494000662002F0CDFD002002F0CAFD552002F0E5
:10495000C7FD002002F0C4FD552002F0C1FD00207B
:1049600002F0BEFD452002F0BBFD002002F0B8FDC4
:10497000432002F0B5FD002002F0B2FD442002F019
:10498000AFFD002002F0ACFDE72002F0AFFD3220C9
:1049900002F0A6FD002002F0A3FD552002F0A0FDCC
:1049A000002002F09DFD762002F09AFD002002F02A
:1049B00097FD662002F094FD002002F091FD672033
:1049C00002F08EFD002002F08BFD672002F088FDD2
:1049D000002002F085FD872002F082FD002002F019
:1049E0007FFD992002F07CFD002002F079FDBB20C4
:1049F00002F076FD002002F073FD992002F070FDB8
:104A0000002002F06DFD772002F06AFD002002F028
:104A100067FD442002F064FD002002F061FD562095
:104A200002F05EFD002002F05BFD232002F058FD45
:104A3000002002F055FD332002F052FD002002F06C
:104A40004FFD452002F04CFD002002F049FDE8201A
:104A500002F04CFD002002F043FD002002F040FD7A
:104A6000992002F03DFD002002F03AFD872002F07F
:104A700037FD002002F034FD882002F031FD0020D7
:104A800002F02EFD772002F02BFD002002F028FD21
:104A9000662002F025FD002002F022FD882002F0B1
:104AA0001FFD002002F01CFDAA2002F019FD0020CD
:104AB00002F016FDBB2002F013FD002002F010FDF5
:104AC000992002F00DFD002002F00AFD662002F0A0
:104AD00007FD002002F004FD552002F001FD00203A
:104AE00002F0FEFC552002F0FBFC002002F0F8FC76
:104AF000442002F0F5FC002002F0F2FC442002F019
:104B0000EFFC002002F0ECFC552002F0E9FC002054
:104B100002F0E6FCE92002F0E9FCAA2002F0E0FC49
:104B2000002002F0DDFC002002F0DAFC002002F0A0
:104B3000D7FC002002F0DAFCAA2002F0D1FCCF2042
:104B400002F0D4FC002002F0CBFC002002F0C8FCF4
:104B5000002002F0C5FC002002F0C2FC002002F0A0
:104B6000BFFC002002F0BCFC002002F0B9FC0020D9
:104B700002F0B6FC002002F0B3FC002002F0B0FC12
:104B8000002002F0ADFC002002F0AAFC002002F0A0
:104B9000A7FC002002F0A4FC002002F0A1FC0020F1
:104BA00002F09EFC002002F09BFCF02002F09EFC34
:104BB000002002F095FC502002F092FC002002F050
:104BC0008FFC002002F08CFC002002F089FCF32016
:104BD00002F08CFC002002F083FCF92002F086FC3D
:104BE000062002F07DFC102002F07AFC292002F061
:104BF00077FC002002F074FC3A2002F077FC55208C
:104C000002F06EFC112002F071FC642003F096FDAE
:104C1000292002F06BFC352002F068FC002002F035
:104C20005FFC512002F062FCFF2002F059FC53208F
:104C300002F05CFC2C2002F053FC552002F056FCE4
:104C4000822002F04DFC2C2002F050FC02F0E6B86D
:104C5000FE48808845F2105188427DD155214FF49D
:104C6000704002F053FCAA214FF2010002F04EFC0A
:104C700052214FF2020002F049FC08214FF20300DA
:104C800002F044FC01214FF2040002F03FFC0D2130
:104C90004FF4304002F03AFC0D214BF2010002F0DB
:104CA00035FC0D214BF2020002F030FC34214FF4B0
:104CB000364002F02BFC34214BF2016002F026FC5E
:104CC00034214BF2026002F021FC0D214FF43140FF
:104CD00002F01CFC0D214BF2011002F017FC0D211B
:104CE0004BF2021002F012FC34214FF4374002F074
:104CF0000DFC34214BF2017002F008FC34214BF220
:104D0000027002F003FC00214FF4324002F0FEFB7F
:104D100000214BF2012002F0F9FB00214BF20220AE
:104D200002F0F4FB24214FF4384002F0EFFB242181
:104D30004BF6010002F0EAFB24214BF6020002F0E0
:104D4000E5FB01214FF43F4002F0E0FB0F214FF45F
:104D5000334002F0DBFB00E0FDE30F214BF20130BA
:104D600002F0D4FB0F214BF2023002F0CFFB3421D2
:104D70004FF4394002F0CAFB34214BF6011002F027
:104D8000C5FB34214BF6021002F0C0FB08214FF4A2
:104D9000354002F0BBFB08214BF2015002F0B6FB9C
:104DA00008214BF2025002F0B1FB03214FF44240C4
:104DB00002F0ACFB24214FF43A4002F0A7FB24217F
:104DC0004BF6012002F0A2FB24214BF6022002F058
:104DD0009DFB00214FF43C4002F098FB78214BF6FC
:104DE000014002F093FB00214BF6024002F08EFBE3
:104DF00000214FF43D4002F089FB78214BF6015031
:104E000002F084FB00214BF6025002F07FFB0021F0
:104E10004FF43E4002F07AFB64214BF6016002F051
:104E200075FB00214FF4514002F070FB33214DF22D
:104E3000011002F06BFB00214DF2021002F066FB44
:104E400034214DF2031002F061FB00214DF20410F9
:104E500002F05CFB3A214DF2051002F057FB0021F5
:104E60004DF2061002F052FB4A214DF2071002F0FB
:104E70004DFB00214DF2081002F048FB5C214DF281
:104E8000091002F043FB00214DF20A1002F03EFB34
:104E900081214DF20B1002F039FB00214DF20C1074
:104EA00002F034FBA6214DF20D1002F02FFB002181
:104EB0004DF20E1002F02AFBE5214DF20F1002F028
:104EC00025FB01214DF2101002F020FB13214DF2C1
:104ED000111002F01BFB01214DF2121002F016FB23
:104EE00054214DF2131002F011FB01214DF2141068
:104EF00002F00CFB82214DF2151002F007FB01219C
:104F00004DF2161002F002FBCA214DF2171002F00A
:104F1000FDFA02214DF2181002F0F8FA00214DF2CC
:104F2000191002F0F3FA02214DF21A1002F0EEFA13
:104F300001214DF21B1002F0E9FA02214DF21C1082
:104F400002F0E4FA34214DF21D1002F0DFFA0221E2
:104F50004DF21E1002F0DAFA67214DF21F1002F036
:104F6000D5FA02214DF2201002F0D0FA84214DF240
:104F7000211002F0CBFA02214DF2221002F0C6FA03
:104F8000A4214DF2231002F0C1FA02214DF22410A7
:104F900002F0BCFAB7214DF2251002F0B7FA022157
:104FA0004DF2261002F0B2FACF214DF2271002F096
:104FB000ADFA02214DF2281002F0A8FADE214DF2DE
:104FC000291002F0A3FA02214DF22A1002F09EFAF3
:104FD000F2214DF22B1002F099FA02214DF22C1021
:104FE00002F094FAFE214DF22D1002F08FFA032107
:104FF0004DF22E1002F08AFA10214DF22F1002F01D
:1050000085FA03214DF2301002F080FA33214DF27F
:10501000311002F07BFA03214DF2321002F076FAE1
:105020006D214DF2331002F071FA00214FF452401D
:1050300002F06CFA33214DF2012002F067FA0021F0
:105040004DF2022002F062FA342101E0EC0100206E
:105050004DF2032002F05AFA00214DF2042002F032
:1050600055FA3A214DF2052002F050FA00214DF296
:10507000062002F04BFA4A214DF2072002F046FAD0
:1050800000214DF2082002F041FA5C214DF2092086
:1050900002F03CFA00214DF20A2002F037FA812199
:1050A0004DF20B2002F032FA00214DF20C2002F0FA
:1050B0002DFAA6214DF20D2002F028FA00214DF222
:1050C0000E2002F023FAE5214DF20F2002F01EFA25
:1050D00001214DF2102002F019FA13214DF2112096
:1050E00002F014FA01214DF2122002F00FFA5421BD
:1050F0004DF2132002F00AFA01214DF2142002F0C1
:1051000005FA82214DF2152002F000FA01214DF23C
:10511000162002F0FBF9CA214DF2172002F0F6F931
:1051200002214DF2182002F0F1F900214DF2192070
:1051300002F0ECF902214DF21A2002F0E7F9012108
:105140004DF21B2002F0E2F902214DF21C2002F088
:10515000DDF934214DF21D2002F0D8F902214DF283
:105160001E2002F0D3F967214DF21F2002F0CEF984
:1051700002214DF2202002F0C9F984214DF22120B4
:1051800002F0C4F902214DF2222002F0BFF9A4215D
:105190004DF2232002F0BAF902214DF2242002F050
:1051A000B5F9B7214DF2252002F0B0F902214DF2F8
:1051B000262002F0ABF9CF214DF2272002F0A6F90C
:1051C00002214DF2282002F0A1F9DE214DF2292022
:1051D00002F09CF902214DF22A2002F097F9F22107
:1051E0004DF22B2002F092F902214DF22C2002F018
:1051F0008DF9FE214DF22D2002F088F903214DF2A8
:105200002E2002F083F910214DF22F2002F07EF9BA
:1052100003214DF2302002F079F933214DF2312093
:1052200002F074F903214DF2322002F06FF96D2182
:105230004DF2332002F06AF900214FF4534002F09E
:1052400065F933214DF2013002F060F900214DF291
:10525000023002F05BF934214DF2033002F056F9CE
:1052600000214DF2043002F051F93A214DF205309F
:1052700002F04CF900214DF2063002F047F94A21C4
:105280004DF2073002F042F900214DF2083002F0F1
:105290003DF95C214DF2093002F038F900214DF260
:1052A0000A3002F033F981214DF20B3002F02EF971
:1052B00000214DF20C3002F029F9A6214DF20D30FB
:1052C00002F024F900214DF20E3002F01FF9E52121
:1052D0004DF20F3002F01AF901214DF2103002F0B8
:1052E00015F913214DF2113002F010F901214DF2A0
:1052F000123002F00BF954214DF2133002F006F98E
:1053000001214DF2143002F001F982214DF21530E5
:1053100002F0FCF801214DF2163002F0F7F8CA2134
:105320004DF2173002F0F2F802214DF2183002F07F
:10533000EDF800214DF2193002F0E8F802214DF2AB
:105340001A3002F0E3F801214DF21B3002F0DEF8D2
:1053500002214DF21C3002F0D9F834214DF21D30FB
:1053600002F0D4F802214DF21E3002F0CFF867218E
:105370004DF21F3002F0CAF802214DF2203002F047
:10538000C5F884214DF2213002F0C0F802214DF21F
:10539000223002F0BBF8A4214DF2233002F0B6F81F
:1053A00002214DF2243002F0B1F8B7214DF2253040
:1053B00002F0ACF802214DF2263002F0A7F8CF211E
:1053C0004DF2273002F0A2F802214DF2283002F00F
:1053D0009DF8DE214DF2293002F098F802214DF2BD
:1053E0002A3002F093F8F2214DF22B3002F08EF8C1
:1053F00002214DF22C3002F089F8FE214DF22D30C1
:1054000002F084F803214DF22E3002F07FF81021D3
:105410004DF22F3002F07AF803214DF2303002F0D5
:1054200075F833214DF2313002F070F803214DF25E
:10543000323002F06BF86D214DF2333002F066F835
:1054400000214FF4544002F061F833214DF2014045
:1054500002F05CF800214DF2024002F057F83421CE
:105460004DF2034002F052F800214DF2044002F0E8
:105470004DF83A214DF2054002F048F800214DF276
:10548000064002F043F84A214DF2074002F03EF890
:1054900000214DF2084002F039F85C214DF209403C
:1054A00002F034F800214DF20A4002F02FF8812179
:1054B0004DF20B4002F02AF800214DF20C4002F0B0
:1054C00025F8A6214DF20D4002F020F800214DF202
:1054D0000E4002F01BF8E5214DF20F4002F016F8E5
:1054E00001214DF2104002F011F813214DF211404C
:1054F00002F00CF801214DF2124002F007F854219D
:105500004DF2134002F002F801214DF2144001F077
:10551000FDFF82214DF2154001F0F8FF01214DF20F
:10552000164001F0F3FFCA214DF2174001F0EEFFE3
:1055300002214DF2184001F0E9FF00214DF219401F
:1055400001F0E4FF02214DF21A4001F0DFFF0121DA
:105550004DF21B4000E006E301F0D8FF02214DF2BE
:105560001C4001F0D3FF34214DF21D4001F0CEFF6D
:1055700002214DF21E4001F0C9FF67214DF21F408C
:1055800001F0C4FF02214DF2204001F0BFFF842151
:105590004DF2214001F0BAFF02214DF2224001F00C
:1055A000B5FFA4214DF2234001F0B0FF02214DF2DE
:1055B000244001F0ABFFB7214DF2254001F0A6FFDA
:1055C00002214DF2264001F0A1FFCF214DF22740EC
:1055D00001F09CFF02214DF2284001F097FFDE21EF
:1055E0004DF2294001F092FF02214DF22A4001F0D4
:1055F0008DFFF2214DF22B4001F088FF02214DF288
:105600002C4001F083FFFE214DF22D4001F07EFF82
:1056100003214DF22E4001F079FF10214DF22F4071
:1056200001F074FF03214DF2304001F06FFF332190
:105630004DF2314001F06AFF03214DF2324001F09A
:1056400065FF6D214DF2334001F060FF00214FF402
:10565000554001F05BFF33214DF2015001F056FF40
:1056600000214DF2025001F051FF34214DF2035060
:1056700001F04CFF00214DF2045001F047FF3A21A8
:105680004DF2055001F042FF00214DF2065001F0AD
:105690003DFF4A214DF2075001F038FF00214DF245
:1056A000085001F033FF5C214DF2095001F02EFF4C
:1056B00000214DF20A5001F029FF81214DF20B50DB
:1056C00001F024FF00214DF20C5001F01FFFA62134
:1056D0004DF20D5001F01AFF00214DF20E5001F075
:1056E00015FFE5214DF20F5001F010FF01214DF2A1
:1056F000105001F00BFF13214DF2115001F006FF85
:1057000001214DF2125001F001FF54214DF21350CE
:1057100001F0FCFE01214DF2145001F0F7FE822150
:105720004DF2155001F0F2FE01214DF2165001F03C
:10573000EDFECA214DF2175001F0E8FE02214DF2B4
:10574000185001F0E3FE00214DF2195001F0DEFE89
:1057500002214DF21A5001F0D9FE01214DF21B50E9
:1057600001F0D4FE02214DF21C5001F0CFFE342195
:105770004DF21D5001F0CAFE02214DF21E5001F003
:10578000C5FE67214DF21F5001F0C0FE02214DF20F
:10579000205001F0BBFE84214DF2215001F0B6FEF5
:1057A00002214DF2225001F0B1FEA4214DF223500E
:1057B00001F0ACFE02214DF2245001F0A7FEB7210A
:1057C0004DF2255001F0A2FE02214DF2265001F0CB
:1057D0009DFECF214DF2275001F098FE02214DF29F
:1057E000285001F093FEDE214DF2295001F08EFE8B
:1057F00002214DF22A5001F089FEF2214DF22B5088
:1058000001F084FE02214DF22C5001F07FFEFE21BA
:105810004DF22D5001F07AFE03214DF22E5001F091
:1058200075FE10214DF22F5001F070FE03214DF254
:10583000305001F06BFE33214DF2315001F066FE25
:1058400003214DF2325001F061FE6D214DF23350D3
:1058500001F05CFE00214FF4564001F057FE332169
:105860004DF2016001F052FE00214DF2026001F0A4
:105870004DFE34214DF2036001F048FE00214DF24F
:10588000046001F043FE3A214DF2056001F03EFE56
:1058900000214DF2066001F039FE4A214DF2076009
:1058A00001F034FE00214DF2086001F02FFE5C2172
:1058B0004DF2096001F02AFE00214DF20A6001F06C
:1058C00025FE81214DF20B6001F020FE00214DF2FA
:1058D0000C6001F01BFEA6214DF20D6001F016FEDA
:1058E00000214DF20E6001F011FEE5214DF20F6036
:1058F00001F00CFE01214DF2106001F007FE1321B2
:105900004DF2116001F002FE01214DF2126001F032
:10591000FDFD54214DF2136001F0F8FD01214DF21F
:10592000146001F0F3FD82214DF2156001F0EEFDEF
:1059300001214DF2166001F0E9FDCA214DF2176018
:1059400001F0E4FD02214DF2186001F0DFFD0021BD
:105950004DF2196001F0DAFD02214DF21A6001F0FA
:10596000D5FD01214DF21B6001F0D0FD02214DF269
:105970001C6001F0CBFD34214DF21D6001F0C6FD2D
:1059800002214DF21E6001F0C1FD67214DF21F6042
:1059900001F0BCFD02214DF2206001F0B7FD842131
:1059A0004DF2216001F0B2FD02214DF2226001F0C2
:1059B000ADFDA4214DF2236001F0A8FD02214DF2BE
:1059C000246001F0A3FDB7214DF2256001F09EFD9A
:1059D00002214DF2266001F099FDCF214DF22760A2
:1059E00001F094FD02214DF2286001F08FFDDE21CF
:1059F0004DF2296001F08AFD02214DF22A6001F08A
:105A000085FDF2214DF22B6001F080FD02214DF267
:105A10002C6001F07BFDFE214DF22D6001F076FD42
:105A200003214DF22E6001F071FD10214DF22F6027
:105A300001F06CFD03214DF2306001F067FD332170
:105A40004DF2316001F062FD03214DF2326001F050
:105A50005DFD6D214DF2336001F058FD55214FF48D
:105A6000704001F053FDAA214FF2010001F04EFDFC
:105A700052214FF2020001F049FD08214FF20300CC
:105A800001F044FD00214FF2040001F03FFDCC2164
:105A90004FF4314001F03AFD00214BF2011001F0CA
:105AA00035FD05214FF4364001F030FD70214FF4F3
:105AB000374001F02BFD70214BF2017001F026FD03
:105AC00001214FF4384001F021FD03214BF6010084
:105AD00001F01CFD03214BF6020001F017FD03212C
